{
  "_format": "hh-sol-artifact-1",
  "contractName": "Raffle",
  "sourceName": "contracts/Raffle.sol",
  "abi": [
    {
      "inputs": [
        {
          "internalType": "address",
          "name": "vrfCoordinatorV2",
          "type": "address"
        },
        {
          "internalType": "uint256",
          "name": "entranceFee",
          "type": "uint256"
        },
        {
          "internalType": "bytes32",
          "name": "gasLane",
          "type": "bytes32"
        },
        {
          "internalType": "uint64",
          "name": "subscriptionId",
          "type": "uint64"
        },
        {
          "internalType": "uint32",
          "name": "callbackGasLimit",
          "type": "uint32"
        },
        {
          "internalType": "uint256",
          "name": "interval",
          "type": "uint256"
        }
      ],
      "stateMutability": "nonpayable",
      "type": "constructor"
    },
    {
      "inputs": [
        {
          "internalType": "address",
          "name": "have",
          "type": "address"
        },
        {
          "internalType": "address",
          "name": "want",
          "type": "address"
        }
      ],
      "name": "OnlyCoordinatorCanFulfill",
      "type": "error"
    },
    {
      "inputs": [],
      "name": "Raffle__NotEnoughETHEnter",
      "type": "error"
    },
    {
      "inputs": [],
      "name": "Raffle__NotOpen",
      "type": "error"
    },
    {
      "inputs": [],
      "name": "Raffle__TransferFailed",
      "type": "error"
    },
    {
      "inputs": [
        {
          "internalType": "uint256",
          "name": "currentBalance",
          "type": "uint256"
        },
        {
          "internalType": "uint256",
          "name": "numPlayers",
          "type": "uint256"
        },
        {
          "internalType": "uint256",
          "name": "raffleState",
          "type": "uint256"
        }
      ],
      "name": "Raffle__UpKeepNotNeeded",
      "type": "error"
    },
    {
      "anonymous": false,
      "inputs": [
        {
          "indexed": true,
          "internalType": "address",
          "name": "player",
          "type": "address"
        }
      ],
      "name": "RaffleEnter",
      "type": "event"
    },
    {
      "anonymous": false,
      "inputs": [
        {
          "indexed": true,
          "internalType": "address",
          "name": "winner",
          "type": "address"
        }
      ],
      "name": "RaffleWinner",
      "type": "event"
    },
    {
      "anonymous": false,
      "inputs": [
        {
          "indexed": true,
          "internalType": "uint256",
          "name": "requestId",
          "type": "uint256"
        }
      ],
      "name": "RequestedRaffleWinner",
      "type": "event"
    },
    {
      "inputs": [
        {
          "internalType": "bytes",
          "name": "",
          "type": "bytes"
        }
      ],
      "name": "checkUpkeep",
      "outputs": [
        {
          "internalType": "bool",
          "name": "upkeepNeeded",
          "type": "bool"
        },
        {
          "internalType": "bytes",
          "name": "",
          "type": "bytes"
        }
      ],
      "stateMutability": "nonpayable",
      "type": "function"
    },
    {
      "inputs": [],
      "name": "enterRaffle",
      "outputs": [],
      "stateMutability": "payable",
      "type": "function"
    },
    {
      "inputs": [],
      "name": "getEntranceFee",
      "outputs": [
        {
          "internalType": "uint256",
          "name": "",
          "type": "uint256"
        }
      ],
      "stateMutability": "view",
      "type": "function"
    },
    {
      "inputs": [],
      "name": "getInterval",
      "outputs": [
        {
          "internalType": "uint256",
          "name": "",
          "type": "uint256"
        }
      ],
      "stateMutability": "view",
      "type": "function"
    },
    {
      "inputs": [],
      "name": "getLatestTimeStamp",
      "outputs": [
        {
          "internalType": "uint256",
          "name": "",
          "type": "uint256"
        }
      ],
      "stateMutability": "view",
      "type": "function"
    },
    {
      "inputs": [],
      "name": "getNumWords",
      "outputs": [
        {
          "internalType": "uint256",
          "name": "",
          "type": "uint256"
        }
      ],
      "stateMutability": "pure",
      "type": "function"
    },
    {
      "inputs": [],
      "name": "getNumberOfPlayers",
      "outputs": [
        {
          "internalType": "uint256",
          "name": "",
          "type": "uint256"
        }
      ],
      "stateMutability": "view",
      "type": "function"
    },
    {
      "inputs": [
        {
          "internalType": "uint256",
          "name": "_index",
          "type": "uint256"
        }
      ],
      "name": "getPlayer",
      "outputs": [
        {
          "internalType": "address",
          "name": "",
          "type": "address"
        }
      ],
      "stateMutability": "view",
      "type": "function"
    },
    {
      "inputs": [],
      "name": "getRaffleState",
      "outputs": [
        {
          "internalType": "enum Raffle.RaffleState",
          "name": "",
          "type": "uint8"
        }
      ],
      "stateMutability": "view",
      "type": "function"
    },
    {
      "inputs": [],
      "name": "getRecentWinner",
      "outputs": [
        {
          "internalType": "address",
          "name": "",
          "type": "address"
        }
      ],
      "stateMutability": "view",
      "type": "function"
    },
    {
      "inputs": [],
      "name": "getRequestConfirmations",
      "outputs": [
        {
          "internalType": "uint16",
          "name": "",
          "type": "uint16"
        }
      ],
      "stateMutability": "pure",
      "type": "function"
    },
    {
      "inputs": [
        {
          "internalType": "bytes",
          "name": "",
          "type": "bytes"
        }
      ],
      "name": "performUpkeep",
      "outputs": [],
      "stateMutability": "nonpayable",
      "type": "function"
    },
    {
      "inputs": [
        {
          "internalType": "uint256",
          "name": "requestId",
          "type": "uint256"
        },
        {
          "internalType": "uint256[]",
          "name": "randomWords",
          "type": "uint256[]"
        }
      ],
      "name": "rawFulfillRandomWords",
      "outputs": [],
      "stateMutability": "nonpayable",
      "type": "function"
    }
  ],
  "bytecode": "0x6101606040523480156200001257600080fd5b506040516200188a3803806200188a8339818101604052810190620000389190620001ad565b858073ffffffffffffffffffffffffffffffffffffffff1660808173ffffffffffffffffffffffffffffffffffffffff1660601b81525050508460a081815250508573ffffffffffffffffffffffffffffffffffffffff1660c08173ffffffffffffffffffffffffffffffffffffffff1660601b815250508360e081815250508267ffffffffffffffff166101008167ffffffffffffffff1660c01b815250508163ffffffff166101208163ffffffff1660e01b815250506000600160146101000a81548160ff02191690836001811115620001195762000118620002b5565b5b0217905550426002819055508061014081815250505050505050506200036b565b6000815190506200014b81620002e9565b92915050565b600081519050620001628162000303565b92915050565b60008151905062000179816200031d565b92915050565b600081519050620001908162000337565b92915050565b600081519050620001a78162000351565b92915050565b60008060008060008060c08789031215620001cd57620001cc620002e4565b5b6000620001dd89828a016200013a565b9650506020620001f089828a0162000168565b95505060406200020389828a0162000151565b94505060606200021689828a0162000196565b93505060806200022989828a016200017f565b92505060a06200023c89828a0162000168565b9150509295509295509295565b6000620002568262000267565b9050919050565b6000819050919050565b600073ffffffffffffffffffffffffffffffffffffffff82169050919050565b6000819050919050565b600063ffffffff82169050919050565b600067ffffffffffffffff82169050919050565b7f4e487b7100000000000000000000000000000000000000000000000000000000600052602160045260246000fd5b600080fd5b620002f48162000249565b81146200030057600080fd5b50565b6200030e816200025d565b81146200031a57600080fd5b50565b620003288162000287565b81146200033457600080fd5b50565b620003428162000291565b81146200034e57600080fd5b50565b6200035c81620002a1565b81146200036857600080fd5b50565b60805160601c60a05160c05160601c60e0516101005160c01c6101205160e01c610140516114a3620003e7600039600081816107f1015261089a015260006106a50152600061068201526000610661015260006106250152600081816102fa01526103f7015260008181610337015261038b01526114a36000f3fe6080604052600436106100c25760003560e01c8063473f1ddc1161007f5780636e04ff0d116100595780636e04ff0d1461022557806391ad27b414610263578063e55ae4e81461028e578063fd6673f5146102cb576100c2565b8063473f1ddc146101a457806353a2c19a146101cf5780635f1b0fd8146101fa576100c2565b806309bc33a7146100c7578063115cbaf5146100f25780631fe543e31461011d5780632cfcc53914610146578063320229eb146101505780634585e33b1461017b575b600080fd5b3480156100d357600080fd5b506100dc6102f6565b6040516100e991906110a9565b60405180910390f35b3480156100fe57600080fd5b5061010761031e565b6040516101149190611073565b60405180910390f35b34801561012957600080fd5b50610144600480360381019061013f9190610e67565b610335565b005b61014e6103f5565b005b34801561015c57600080fd5b50610165610564565b60405161017291906110a9565b60405180910390f35b34801561018757600080fd5b506101a2600480360381019061019d9190610d77565b61056e565b005b3480156101b057600080fd5b506101b961076d565b6040516101c69190610fac565b60405180910390f35b3480156101db57600080fd5b506101e4610797565b6040516101f191906110a9565b60405180910390f35b34801561020657600080fd5b5061020f6107a6565b60405161021c919061108e565b60405180910390f35b34801561023157600080fd5b5061024c60048036038101906102479190610dc4565b6107af565b60405161025a929190610ff0565b60405180910390f35b34801561026f57600080fd5b50610278610896565b60405161028591906110a9565b60405180910390f35b34801561029a57600080fd5b506102b560048036038101906102b09190610e0d565b6108be565b6040516102c29190610fac565b60405180910390f35b3480156102d757600080fd5b506102e0610905565b6040516102ed91906110a9565b60405180910390f35b60007f0000000000000000000000000000000000000000000000000000000000000000905090565b6000600160149054906101000a900460ff16905090565b7f000000000000000000000000000000000000000000000000000000000000000073ffffffffffffffffffffffffffffffffffffffff163373ffffffffffffffffffffffffffffffffffffffff16146103e757337f00000000000000000000000000000000000000000000000000000000000000006040517f1cf993f40000000000000000000000000000000000000000000000000000000081526004016103de929190610fc7565b60405180910390fd5b6103f18282610911565b5050565b7f000000000000000000000000000000000000000000000000000000000000000034101561044f576040517f022cd66e00000000000000000000000000000000000000000000000000000000815260040160405180910390fd5b6000600181111561046357610462611383565b5b600160149054906101000a900460ff16600181111561048557610484611383565b5b146104bc576040517f1425571c00000000000000000000000000000000000000000000000000000000815260040160405180910390fd5b6000339080600181540180825580915050600190039060005260206000200160009091909190916101000a81548173ffffffffffffffffffffffffffffffffffffffff021916908373ffffffffffffffffffffffffffffffffffffffff1602179055503373ffffffffffffffffffffffffffffffffffffffff167f0805e1d667bddb8a95f0f09880cf94f403fb596ce79928d9f29b74203ba284d460405160405180910390a2565b6000600254905090565b6000610588604051806020016040528060008152506107af565b509050806105f75747600080549050600160149054906101000a900460ff1660018111156105b9576105b8611383565b5b6040517f3a8d60860000000000000000000000000000000000000000000000000000000081526004016105ee939291906110c4565b60405180910390fd5b60018060146101000a81548160ff0219169083600181111561061c5761061b611383565b5b021790555060007f000000000000000000000000000000000000000000000000000000000000000073ffffffffffffffffffffffffffffffffffffffff16635d3b1d307f00000000000000000000000000000000000000000000000000000000000000007f000000000000000000000000000000000000000000000000000000000000000060037f000000000000000000000000000000000000000000000000000000000000000060016040518663ffffffff1660e01b81526004016106e6959493929190611020565b602060405180830381600087803b15801561070057600080fd5b505af1158015610714573d6000803e3d6000fd5b505050506040513d601f19601f820116820180604052508101906107389190610e3a565b9050807fcd6e45c8998311cab7e9d4385596cac867e20a0587194b954fa3a731c93ce78b60405160405180910390a250505050565b6000600160009054906101000a900473ffffffffffffffffffffffffffffffffffffffff16905090565b6000600163ffffffff16905090565b60006003905090565b6000606060008060018111156107c8576107c7611383565b5b600160149054906101000a900460ff1660018111156107ea576107e9611383565b5b14905060007f00000000000000000000000000000000000000000000000000000000000000006002544261081e91906111a4565b1190506000806000805490501190506000804711905083801561083e5750825b80156108475750815b80156108505750805b9550856040518060400160405280600381526020017f30783000000000000000000000000000000000000000000000000000000000008152509550955050505050915091565b60007f0000000000000000000000000000000000000000000000000000000000000000905090565b60008082815481106108d3576108d26113b2565b5b9060005260206000200160009054906101000a900473ffffffffffffffffffffffffffffffffffffffff169050919050565b60008080549050905090565b600080805490508260008151811061092c5761092b6113b2565b5b602002602001015161093e91906112f4565b90506000808281548110610955576109546113b2565b5b9060005260206000200160009054906101000a900473ffffffffffffffffffffffffffffffffffffffff16905080600160006101000a81548173ffffffffffffffffffffffffffffffffffffffff021916908373ffffffffffffffffffffffffffffffffffffffff1602179055506000600160146101000a81548160ff021916908360018111156109e9576109e8611383565b5b0217905550600067ffffffffffffffff811115610a0957610a086113e1565b5b604051908082528060200260200182016040528015610a375781602001602082028036833780820191505090505b5060009080519060200190610a4d929190610b42565b504260028190555060008173ffffffffffffffffffffffffffffffffffffffff1647604051610a7b90610f97565b60006040518083038185875af1925050503d8060008114610ab8576040519150601f19603f3d011682016040523d82523d6000602084013e610abd565b606091505b5050905080610af8576040517fa1d04b3900000000000000000000000000000000000000000000000000000000815260040160405180910390fd5b8173ffffffffffffffffffffffffffffffffffffffff167f16d6ae18ca26331fba5a8b53b0749a009d33b172b68a49d64a767782f5b6010360405160405180910390a25050505050565b828054828255906000526020600020908101928215610bbb579160200282015b82811115610bba5782518260006101000a81548173ffffffffffffffffffffffffffffffffffffffff021916908373ffffffffffffffffffffffffffffffffffffffff16021790555091602001919060010190610b62565b5b509050610bc89190610bcc565b5090565b5b80821115610be5576000816000905550600101610bcd565b5090565b6000610bfc610bf784611120565b6110fb565b90508083825260208201905082856020860282011115610c1f57610c1e61141a565b5b60005b85811015610c4f5781610c358882610d4d565b845260208401935060208301925050600181019050610c22565b5050509392505050565b6000610c6c610c678461114c565b6110fb565b905082815260208101848484011115610c8857610c8761141f565b5b610c93848285611281565b509392505050565b600082601f830112610cb057610caf611415565b5b8135610cc0848260208601610be9565b91505092915050565b60008083601f840112610cdf57610cde611415565b5b8235905067ffffffffffffffff811115610cfc57610cfb611410565b5b602083019150836001820283011115610d1857610d1761141a565b5b9250929050565b600082601f830112610d3457610d33611415565b5b8135610d44848260208601610c59565b91505092915050565b600081359050610d5c81611456565b92915050565b600081519050610d7181611456565b92915050565b60008060208385031215610d8e57610d8d611429565b5b600083013567ffffffffffffffff811115610dac57610dab611424565b5b610db885828601610cc9565b92509250509250929050565b600060208284031215610dda57610dd9611429565b5b600082013567ffffffffffffffff811115610df857610df7611424565b5b610e0484828501610d1f565b91505092915050565b600060208284031215610e2357610e22611429565b5b6000610e3184828501610d4d565b91505092915050565b600060208284031215610e5057610e4f611429565b5b6000610e5e84828501610d62565b91505092915050565b60008060408385031215610e7e57610e7d611429565b5b6000610e8c85828601610d4d565b925050602083013567ffffffffffffffff811115610ead57610eac611424565b5b610eb985828601610c9b565b9150509250929050565b610ecc816111d8565b82525050565b610edb816111ea565b82525050565b610eea816111f6565b82525050565b6000610efb8261117d565b610f058185611188565b9350610f15818560208601611290565b610f1e8161142e565b840191505092915050565b610f328161126f565b82525050565b6000610f45600083611199565b9150610f508261143f565b600082019050919050565b610f6481611213565b82525050565b610f7381611241565b82525050565b610f828161124b565b82525050565b610f918161125b565b82525050565b6000610fa282610f38565b9150819050919050565b6000602082019050610fc16000830184610ec3565b92915050565b6000604082019050610fdc6000830185610ec3565b610fe96020830184610ec3565b9392505050565b60006040820190506110056000830185610ed2565b81810360208301526110178184610ef0565b90509392505050565b600060a0820190506110356000830188610ee1565b6110426020830187610f88565b61104f6040830186610f5b565b61105c6060830185610f79565b6110696080830184610f79565b9695505050505050565b60006020820190506110886000830184610f29565b92915050565b60006020820190506110a36000830184610f5b565b92915050565b60006020820190506110be6000830184610f6a565b92915050565b60006060820190506110d96000830186610f6a565b6110e66020830185610f6a565b6110f36040830184610f6a565b949350505050565b6000611105611116565b905061111182826112c3565b919050565b6000604051905090565b600067ffffffffffffffff82111561113b5761113a6113e1565b5b602082029050602081019050919050565b600067ffffffffffffffff821115611167576111666113e1565b5b6111708261142e565b9050602081019050919050565b600081519050919050565b600082825260208201905092915050565b600081905092915050565b60006111af82611241565b91506111ba83611241565b9250828210156111cd576111cc611325565b5b828203905092915050565b60006111e382611221565b9050919050565b60008115159050919050565b6000819050919050565b600081905061120e82611442565b919050565b600061ffff82169050919050565b600073ffffffffffffffffffffffffffffffffffffffff82169050919050565b6000819050919050565b600063ffffffff82169050919050565b600067ffffffffffffffff82169050919050565b600061127a82611200565b9050919050565b82818337600083830152505050565b60005b838110156112ae578082015181840152602081019050611293565b838111156112bd576000848401525b50505050565b6112cc8261142e565b810181811067ffffffffffffffff821117156112eb576112ea6113e1565b5b80604052505050565b60006112ff82611241565b915061130a83611241565b92508261131a57611319611354565b5b828206905092915050565b7f4e487b7100000000000000000000000000000000000000000000000000000000600052601160045260246000fd5b7f4e487b7100000000000000000000000000000000000000000000000000000000600052601260045260246000fd5b7f4e487b7100000000000000000000000000000000000000000000000000000000600052602160045260246000fd5b7f4e487b7100000000000000000000000000000000000000000000000000000000600052603260045260246000fd5b7f4e487b7100000000000000000000000000000000000000000000000000000000600052604160045260246000fd5b600080fd5b600080fd5b600080fd5b600080fd5b600080fd5b600080fd5b6000601f19601f8301169050919050565b50565b6002811061145357611452611383565b5b50565b61145f81611241565b811461146a57600080fd5b5056fea2646970667358221220d75a6d943e4957bdb50166ca3390149daec088444dde9954e675dec4c82aac4964736f6c63430008070033",
  "linkReferences": {},
  "deployedLinkReferences": {}
}