{
  "_format": "hh-sol-artifact-1",
  "contractName": "Raffle",
  "sourceName": "contracts/Raffle.sol",
  "abi": [
    {
      "inputs": [
        {
          "internalType": "address",
          "name": "vrfCoordinatorV2",
          "type": "address"
        },
        {
          "internalType": "uint256",
          "name": "entranceFee",
          "type": "uint256"
        },
        {
          "internalType": "bytes32",
          "name": "gasLane",
          "type": "bytes32"
        },
        {
          "internalType": "uint64",
          "name": "subscriptionId",
          "type": "uint64"
        },
        {
          "internalType": "uint32",
          "name": "callbackGasLimit",
          "type": "uint32"
        },
        {
          "internalType": "uint256",
          "name": "interval",
          "type": "uint256"
        }
      ],
      "stateMutability": "nonpayable",
      "type": "constructor"
    },
    {
      "inputs": [
        {
          "internalType": "address",
          "name": "have",
          "type": "address"
        },
        {
          "internalType": "address",
          "name": "want",
          "type": "address"
        }
      ],
      "name": "OnlyCoordinatorCanFulfill",
      "type": "error"
    },
    {
      "inputs": [],
      "name": "Raffle__NotEnoughETHEnter",
      "type": "error"
    },
    {
      "inputs": [],
      "name": "Raffle__NotOpen",
      "type": "error"
    },
    {
      "inputs": [],
      "name": "Raffle__TransferFailed",
      "type": "error"
    },
    {
      "inputs": [
        {
          "internalType": "uint256",
          "name": "currentBalance",
          "type": "uint256"
        },
        {
          "internalType": "uint256",
          "name": "numPlayers",
          "type": "uint256"
        },
        {
          "internalType": "uint256",
          "name": "raffleState",
          "type": "uint256"
        }
      ],
      "name": "Raffle__UpKeepNotNeeded",
      "type": "error"
    },
    {
      "anonymous": false,
      "inputs": [
        {
          "indexed": true,
          "internalType": "address",
          "name": "player",
          "type": "address"
        }
      ],
      "name": "RaffleEnter",
      "type": "event"
    },
    {
      "anonymous": false,
      "inputs": [
        {
          "indexed": true,
          "internalType": "address",
          "name": "winner",
          "type": "address"
        }
      ],
      "name": "RaffleWinner",
      "type": "event"
    },
    {
      "anonymous": false,
      "inputs": [
        {
          "indexed": true,
          "internalType": "uint256",
          "name": "requestId",
          "type": "uint256"
        }
      ],
      "name": "RequestedRaffleWinner",
      "type": "event"
    },
    {
      "inputs": [
        {
          "internalType": "bytes",
          "name": "",
          "type": "bytes"
        }
      ],
      "name": "checkUpkeep",
      "outputs": [
        {
          "internalType": "bool",
          "name": "upkeepNeeded",
          "type": "bool"
        },
        {
          "internalType": "bytes",
          "name": "",
          "type": "bytes"
        }
      ],
      "stateMutability": "nonpayable",
      "type": "function"
    },
    {
      "inputs": [],
      "name": "enterRaffle",
      "outputs": [],
      "stateMutability": "payable",
      "type": "function"
    },
    {
      "inputs": [],
      "name": "getEntranceFee",
      "outputs": [
        {
          "internalType": "uint256",
          "name": "",
          "type": "uint256"
        }
      ],
      "stateMutability": "view",
      "type": "function"
    },
    {
      "inputs": [],
      "name": "getLastestTimeStamp",
      "outputs": [
        {
          "internalType": "uint256",
          "name": "",
          "type": "uint256"
        }
      ],
      "stateMutability": "view",
      "type": "function"
    },
    {
      "inputs": [],
      "name": "getNumWords",
      "outputs": [
        {
          "internalType": "uint256",
          "name": "",
          "type": "uint256"
        }
      ],
      "stateMutability": "pure",
      "type": "function"
    },
    {
      "inputs": [],
      "name": "getNumberOfPlayers",
      "outputs": [
        {
          "internalType": "uint256",
          "name": "",
          "type": "uint256"
        }
      ],
      "stateMutability": "view",
      "type": "function"
    },
    {
      "inputs": [
        {
          "internalType": "uint256",
          "name": "_index",
          "type": "uint256"
        }
      ],
      "name": "getPlayer",
      "outputs": [
        {
          "internalType": "address",
          "name": "",
          "type": "address"
        }
      ],
      "stateMutability": "view",
      "type": "function"
    },
    {
      "inputs": [],
      "name": "getRaffleState",
      "outputs": [
        {
          "internalType": "enum Raffle.RaffleState",
          "name": "",
          "type": "uint8"
        }
      ],
      "stateMutability": "view",
      "type": "function"
    },
    {
      "inputs": [],
      "name": "getRecentWinner",
      "outputs": [
        {
          "internalType": "address",
          "name": "",
          "type": "address"
        }
      ],
      "stateMutability": "view",
      "type": "function"
    },
    {
      "inputs": [],
      "name": "getRequestConfirmations",
      "outputs": [
        {
          "internalType": "uint16",
          "name": "",
          "type": "uint16"
        }
      ],
      "stateMutability": "pure",
      "type": "function"
    },
    {
      "inputs": [
        {
          "internalType": "bytes",
          "name": "",
          "type": "bytes"
        }
      ],
      "name": "performUpkeep",
      "outputs": [],
      "stateMutability": "nonpayable",
      "type": "function"
    },
    {
      "inputs": [
        {
          "internalType": "uint256",
          "name": "requestId",
          "type": "uint256"
        },
        {
          "internalType": "uint256[]",
          "name": "randomWords",
          "type": "uint256[]"
        }
      ],
      "name": "rawFulfillRandomWords",
      "outputs": [],
      "stateMutability": "nonpayable",
      "type": "function"
    }
  ],
  "bytecode": "0x6101606040523480156200001257600080fd5b50604051620017da380380620017da8339818101604052810190620000389190620001ad565b858073ffffffffffffffffffffffffffffffffffffffff1660808173ffffffffffffffffffffffffffffffffffffffff1660601b81525050508460a081815250508573ffffffffffffffffffffffffffffffffffffffff1660c08173ffffffffffffffffffffffffffffffffffffffff1660601b815250508360e081815250508267ffffffffffffffff166101008167ffffffffffffffff1660c01b815250508163ffffffff166101208163ffffffff1660e01b815250506000600160146101000a81548160ff02191690836001811115620001195762000118620002b5565b5b0217905550426002819055508061014081815250505050505050506200036b565b6000815190506200014b81620002e9565b92915050565b600081519050620001628162000303565b92915050565b60008151905062000179816200031d565b92915050565b600081519050620001908162000337565b92915050565b600081519050620001a78162000351565b92915050565b60008060008060008060c08789031215620001cd57620001cc620002e4565b5b6000620001dd89828a016200013a565b9650506020620001f089828a0162000168565b95505060406200020389828a0162000151565b94505060606200021689828a0162000196565b93505060806200022989828a016200017f565b92505060a06200023c89828a0162000168565b9150509295509295509295565b6000620002568262000267565b9050919050565b6000819050919050565b600073ffffffffffffffffffffffffffffffffffffffff82169050919050565b6000819050919050565b600063ffffffff82169050919050565b600067ffffffffffffffff82169050919050565b7f4e487b7100000000000000000000000000000000000000000000000000000000600052602160045260246000fd5b600080fd5b620002f48162000249565b81146200030057600080fd5b50565b6200030e816200025d565b81146200031a57600080fd5b50565b620003288162000287565b81146200033457600080fd5b50565b620003428162000291565b81146200034e57600080fd5b50565b6200035c81620002a1565b81146200036857600080fd5b50565b60805160601c60a05160c05160601c60e0516101005160c01c6101205160e01c610140516113fa620003e060003960006107a1015260006106550152600061063201526000610611015260006105d50152600081816102b401526103b10152600081816102f1015261034501526113fa6000f3fe6080604052600436106100a75760003560e01c806353a2c19a1161006457806353a2c19a146101895780635f1b0fd8146101b45780636e04ff0d146101df5780638ba05b0e1461021d578063e55ae4e814610248578063fd6673f514610285576100a7565b806309bc33a7146100ac578063115cbaf5146100d75780631fe543e3146101025780632cfcc5391461012b5780634585e33b14610135578063473f1ddc1461015e575b600080fd5b3480156100b857600080fd5b506100c16102b0565b6040516100ce9190611000565b60405180910390f35b3480156100e357600080fd5b506100ec6102d8565b6040516100f99190610fca565b60405180910390f35b34801561010e57600080fd5b5061012960048036038101906101249190610dbe565b6102ef565b005b6101336103af565b005b34801561014157600080fd5b5061015c60048036038101906101579190610cce565b61051e565b005b34801561016a57600080fd5b5061017361071d565b6040516101809190610f03565b60405180910390f35b34801561019557600080fd5b5061019e610747565b6040516101ab9190611000565b60405180910390f35b3480156101c057600080fd5b506101c9610756565b6040516101d69190610fe5565b60405180910390f35b3480156101eb57600080fd5b5061020660048036038101906102019190610d1b565b61075f565b604051610214929190610f47565b60405180910390f35b34801561022957600080fd5b5061023261080b565b60405161023f9190611000565b60405180910390f35b34801561025457600080fd5b5061026f600480360381019061026a9190610d64565b610815565b60405161027c9190610f03565b60405180910390f35b34801561029157600080fd5b5061029a61085c565b6040516102a79190611000565b60405180910390f35b60007f0000000000000000000000000000000000000000000000000000000000000000905090565b6000600160149054906101000a900460ff16905090565b7f000000000000000000000000000000000000000000000000000000000000000073ffffffffffffffffffffffffffffffffffffffff163373ffffffffffffffffffffffffffffffffffffffff16146103a157337f00000000000000000000000000000000000000000000000000000000000000006040517f1cf993f4000000000000000000000000000000000000000000000000000000008152600401610398929190610f1e565b60405180910390fd5b6103ab8282610868565b5050565b7f0000000000000000000000000000000000000000000000000000000000000000341015610409576040517f022cd66e00000000000000000000000000000000000000000000000000000000815260040160405180910390fd5b6000600181111561041d5761041c6112da565b5b600160149054906101000a900460ff16600181111561043f5761043e6112da565b5b14610476576040517f1425571c00000000000000000000000000000000000000000000000000000000815260040160405180910390fd5b6000339080600181540180825580915050600190039060005260206000200160009091909190916101000a81548173ffffffffffffffffffffffffffffffffffffffff021916908373ffffffffffffffffffffffffffffffffffffffff1602179055503373ffffffffffffffffffffffffffffffffffffffff167f0805e1d667bddb8a95f0f09880cf94f403fb596ce79928d9f29b74203ba284d460405160405180910390a2565b60006105386040518060200160405280600081525061075f565b509050806105a75747600080549050600160149054906101000a900460ff166001811115610569576105686112da565b5b6040517f3a8d608600000000000000000000000000000000000000000000000000000000815260040161059e9392919061101b565b60405180910390fd5b60018060146101000a81548160ff021916908360018111156105cc576105cb6112da565b5b021790555060007f000000000000000000000000000000000000000000000000000000000000000073ffffffffffffffffffffffffffffffffffffffff16635d3b1d307f00000000000000000000000000000000000000000000000000000000000000007f000000000000000000000000000000000000000000000000000000000000000060037f000000000000000000000000000000000000000000000000000000000000000060016040518663ffffffff1660e01b8152600401610696959493929190610f77565b602060405180830381600087803b1580156106b057600080fd5b505af11580156106c4573d6000803e3d6000fd5b505050506040513d601f19601f820116820180604052508101906106e89190610d91565b9050807fcd6e45c8998311cab7e9d4385596cac867e20a0587194b954fa3a731c93ce78b60405160405180910390a250505050565b6000600160009054906101000a900473ffffffffffffffffffffffffffffffffffffffff16905090565b6000600163ffffffff16905090565b60006003905090565b600060606000806001811115610778576107776112da565b5b600160149054906101000a900460ff16600181111561079a576107996112da565b5b14905060007f0000000000000000000000000000000000000000000000000000000000000000600254426107ce91906110fb565b119050600080600080549050119050600080471190508380156107ee5750825b80156107f75750815b80156108005750805b955050505050915091565b6000600254905090565b600080828154811061082a57610829611309565b5b9060005260206000200160009054906101000a900473ffffffffffffffffffffffffffffffffffffffff169050919050565b60008080549050905090565b600080805490508260008151811061088357610882611309565b5b6020026020010151610895919061124b565b905060008082815481106108ac576108ab611309565b5b9060005260206000200160009054906101000a900473ffffffffffffffffffffffffffffffffffffffff16905080600160006101000a81548173ffffffffffffffffffffffffffffffffffffffff021916908373ffffffffffffffffffffffffffffffffffffffff1602179055506000600160146101000a81548160ff021916908360018111156109405761093f6112da565b5b0217905550600067ffffffffffffffff8111156109605761095f611338565b5b60405190808252806020026020018201604052801561098e5781602001602082028036833780820191505090505b50600090805190602001906109a4929190610a99565b504260028190555060008173ffffffffffffffffffffffffffffffffffffffff16476040516109d290610eee565b60006040518083038185875af1925050503d8060008114610a0f576040519150601f19603f3d011682016040523d82523d6000602084013e610a14565b606091505b5050905080610a4f576040517fa1d04b3900000000000000000000000000000000000000000000000000000000815260040160405180910390fd5b8173ffffffffffffffffffffffffffffffffffffffff167f16d6ae18ca26331fba5a8b53b0749a009d33b172b68a49d64a767782f5b6010360405160405180910390a25050505050565b828054828255906000526020600020908101928215610b12579160200282015b82811115610b115782518260006101000a81548173ffffffffffffffffffffffffffffffffffffffff021916908373ffffffffffffffffffffffffffffffffffffffff16021790555091602001919060010190610ab9565b5b509050610b1f9190610b23565b5090565b5b80821115610b3c576000816000905550600101610b24565b5090565b6000610b53610b4e84611077565b611052565b90508083825260208201905082856020860282011115610b7657610b75611371565b5b60005b85811015610ba65781610b8c8882610ca4565b845260208401935060208301925050600181019050610b79565b5050509392505050565b6000610bc3610bbe846110a3565b611052565b905082815260208101848484011115610bdf57610bde611376565b5b610bea8482856111d8565b509392505050565b600082601f830112610c0757610c0661136c565b5b8135610c17848260208601610b40565b91505092915050565b60008083601f840112610c3657610c3561136c565b5b8235905067ffffffffffffffff811115610c5357610c52611367565b5b602083019150836001820283011115610c6f57610c6e611371565b5b9250929050565b600082601f830112610c8b57610c8a61136c565b5b8135610c9b848260208601610bb0565b91505092915050565b600081359050610cb3816113ad565b92915050565b600081519050610cc8816113ad565b92915050565b60008060208385031215610ce557610ce4611380565b5b600083013567ffffffffffffffff811115610d0357610d0261137b565b5b610d0f85828601610c20565b92509250509250929050565b600060208284031215610d3157610d30611380565b5b600082013567ffffffffffffffff811115610d4f57610d4e61137b565b5b610d5b84828501610c76565b91505092915050565b600060208284031215610d7a57610d79611380565b5b6000610d8884828501610ca4565b91505092915050565b600060208284031215610da757610da6611380565b5b6000610db584828501610cb9565b91505092915050565b60008060408385031215610dd557610dd4611380565b5b6000610de385828601610ca4565b925050602083013567ffffffffffffffff811115610e0457610e0361137b565b5b610e1085828601610bf2565b9150509250929050565b610e238161112f565b82525050565b610e3281611141565b82525050565b610e418161114d565b82525050565b6000610e52826110d4565b610e5c81856110df565b9350610e6c8185602086016111e7565b610e7581611385565b840191505092915050565b610e89816111c6565b82525050565b6000610e9c6000836110f0565b9150610ea782611396565b600082019050919050565b610ebb8161116a565b82525050565b610eca81611198565b82525050565b610ed9816111a2565b82525050565b610ee8816111b2565b82525050565b6000610ef982610e8f565b9150819050919050565b6000602082019050610f186000830184610e1a565b92915050565b6000604082019050610f336000830185610e1a565b610f406020830184610e1a565b9392505050565b6000604082019050610f5c6000830185610e29565b8181036020830152610f6e8184610e47565b90509392505050565b600060a082019050610f8c6000830188610e38565b610f996020830187610edf565b610fa66040830186610eb2565b610fb36060830185610ed0565b610fc06080830184610ed0565b9695505050505050565b6000602082019050610fdf6000830184610e80565b92915050565b6000602082019050610ffa6000830184610eb2565b92915050565b60006020820190506110156000830184610ec1565b92915050565b60006060820190506110306000830186610ec1565b61103d6020830185610ec1565b61104a6040830184610ec1565b949350505050565b600061105c61106d565b9050611068828261121a565b919050565b6000604051905090565b600067ffffffffffffffff82111561109257611091611338565b5b602082029050602081019050919050565b600067ffffffffffffffff8211156110be576110bd611338565b5b6110c782611385565b9050602081019050919050565b600081519050919050565b600082825260208201905092915050565b600081905092915050565b600061110682611198565b915061111183611198565b9250828210156111245761112361127c565b5b828203905092915050565b600061113a82611178565b9050919050565b60008115159050919050565b6000819050919050565b600081905061116582611399565b919050565b600061ffff82169050919050565b600073ffffffffffffffffffffffffffffffffffffffff82169050919050565b6000819050919050565b600063ffffffff82169050919050565b600067ffffffffffffffff82169050919050565b60006111d182611157565b9050919050565b82818337600083830152505050565b60005b838110156112055780820151818401526020810190506111ea565b83811115611214576000848401525b50505050565b61122382611385565b810181811067ffffffffffffffff8211171561124257611241611338565b5b80604052505050565b600061125682611198565b915061126183611198565b925082611271576112706112ab565b5b828206905092915050565b7f4e487b7100000000000000000000000000000000000000000000000000000000600052601160045260246000fd5b7f4e487b7100000000000000000000000000000000000000000000000000000000600052601260045260246000fd5b7f4e487b7100000000000000000000000000000000000000000000000000000000600052602160045260246000fd5b7f4e487b7100000000000000000000000000000000000000000000000000000000600052603260045260246000fd5b7f4e487b7100000000000000000000000000000000000000000000000000000000600052604160045260246000fd5b600080fd5b600080fd5b600080fd5b600080fd5b600080fd5b600080fd5b6000601f19601f8301169050919050565b50565b600281106113aa576113a96112da565b5b50565b6113b681611198565b81146113c157600080fd5b5056fea2646970667358221220c265ac7d04cb110a17d2e4ba39b807e6c9e1a80201364070864bde504101c1d164736f6c63430008070033",
  "linkReferences": {},
  "deployedLinkReferences": {}
}